:100000000C9434000C943E000C943E000C943E0082
:100010000C943E000C943E000C943E000C943E0068
:100020000C943E000C943E000C943E000C943E0058
:100030000C943E000C943E000C943E000C943E0048
:100040000C943E000C943E000C943E000C943E0038
:100050000C943E000C943E000C943E000C943E0028
:100060000C943E000C943E0011241FBECFEFD8E04C
:10007000DEBFCDBF0E9440000C9485000C940000B0
:10008000209A91E085B1892785B92FE33DE083E08F
:10009000215030408040E1F700C000002FE33DE0F8
:1000A00083E0215030408040E1F700C000002FE3A2
:1000B0003DE083E0215030408040E1F700C0000087
:1000C0002FE33DE083E0215030408040E1F700C065
:1000D00000002FE33DE083E0215030408040E1F715
:1000E00000C000002FE33DE083E02150304080401D
:1000F000E1F700C000002FE33DE083E021503040F5
:0E0100008040E1F700C00000BDCFF894FFCFB3
:00000001FF
